{
  "transactions": [
    {
      "hash": "0xb3ec1276a4aa035306f71f248bdd290d4f8abee9d5277712eb5f8833d9603138",
      "transactionType": "CALL",
      "contractName": null,
      "contractAddress": "0x036cbd53842c5426634e7929541ec2318f3dcf7e",
      "function": "approve(address,uint256)",
      "arguments": [
        "0x068bB96e849F0DE3D49944Ec0F4aEd3D6B165770",
        "1000000"
      ],
      "transaction": {
        "from": "0xf76e6b0920e9332ff4410f6dd53f01722abc71a3",
        "to": "0x036cbd53842c5426634e7929541ec2318f3dcf7e",
        "gas": "0x12b1b",
        "value": "0x0",
        "input": "0x095ea7b3000000000000000000000000068bb96e849f0de3d49944ec0f4aed3d6b16577000000000000000000000000000000000000000000000000000000000000f4240",
        "nonce": "0x3",
        "chainId": "0x14a34"
      },
      "additionalContracts": [],
      "isFixedGasLimit": false
    },
    {
      "hash": "0x1e0e7f7e07929d4ca424c8724586a656a328c0a746add249cd97d78e7feb9c39",
      "transactionType": "CALL",
      "contractName": null,
      "contractAddress": "0x068bb96e849f0de3d49944ec0f4aed3d6b165770",
      "function": "fund(uint256,uint256)",
      "arguments": [
        "1",
        "1000000"
      ],
      "transaction": {
        "from": "0xf76e6b0920e9332ff4410f6dd53f01722abc71a3",
        "to": "0x068bb96e849f0de3d49944ec0f4aed3d6b165770",
        "gas": "0x1d0ce",
        "value": "0x0",
        "input": "0xa65e2cfd000000000000000000000000000000000000000000000000000000000000000100000000000000000000000000000000000000000000000000000000000f4240",
        "nonce": "0x4",
        "chainId": "0x14a34"
      },
      "additionalContracts": [],
      "isFixedGasLimit": false
    }
  ],
  "receipts": [
    {
      "type": "0x2",
      "status": "0x1",
      "cumulativeGasUsed": "0x141c6d",
      "logs": [
        {
          "address": "0x036cbd53842c5426634e7929541ec2318f3dcf7e",
          "topics": [
            "0x8c5be1e5ebec7d5bd14f71427d1e84f3dd0314c0f7b2291e5b200ac8c7c3b925",
            "0x000000000000000000000000f76e6b0920e9332ff4410f6dd53f01722abc71a3",
            "0x000000000000000000000000068bb96e849f0de3d49944ec0f4aed3d6b165770"
          ],
          "data": "0x00000000000000000000000000000000000000000000000000000000000f4240",
          "blockHash": "0x058c307bccfc2b3db5c5a53f8183c82d80f100a8c5b8e8f77fbe642395e59a9c",
          "blockNumber": "0x2a65ea0",
          "blockTimestamp": "0x6a601c20",
          "transactionHash": "0xb3ec1276a4aa035306f71f248bdd290d4f8abee9d5277712eb5f8833d9603138",
          "transactionIndex": "0x5",
          "logIndex": "0x1e",
          "removed": false
        }
      ],
      "logsBloom": "0x00000000040000000000000000000000000000000000000000000000000000000000000000000000000000000000000000000000000000000000000000200000000000000000000000000000000000000000000000000000000000000000000800000000000000000000000000000000000000000000000000000000000000000000000000000000000000000000000000000000000000000000000040000000020000000000004000000001000000000000000000000000000200000000000000000000000000000000000000000000000000000000000000000010000000000010000000000000000000000020000010000000000000000000000000000000",
      "transactionHash": "0xb3ec1276a4aa035306f71f248bdd290d4f8abee9d5277712eb5f8833d9603138",
      "transactionIndex": "0x5",
      "blockHash": "0x058c307bccfc2b3db5c5a53f8183c82d80f100a8c5b8e8f77fbe642395e59a9c",
      "blockNumber": "0x2a65ea0",
      "gasUsed": "0xd88d",
      "effectiveGasPrice": "0x5b8d80",
      "blobGasUsed": "0xae38",
      "from": "0xf76e6b0920e9332ff4410f6dd53f01722abc71a3",
      "to": "0x036cbd53842c5426634e7929541ec2318f3dcf7e",
      "contractAddress": null,
      "l1GasPrice": "0x3eb40e5e",
      "l1GasUsed": "0x640",
      "l1Fee": "0x16324b791",
      "l1BaseFeeScalar": "0x44d",
      "l1BlobBaseFee": "0x3b54bde",
      "l1BlobBaseFeeScalar": "0xa118b",
      "daFootprintGasScalar": "0x1be"
    },
    {
      "type": "0x2",
      "status": "0x1",
      "cumulativeGasUsed": "0x389b2d",
      "logs": [
        {
          "address": "0x036cbd53842c5426634e7929541ec2318f3dcf7e",
          "topics": [
            "0xddf252ad1be2c89b69c2b068fc378daa952ba7f163c4a11628f55a4df523b3ef",
            "0x000000000000000000000000f76e6b0920e9332ff4410f6dd53f01722abc71a3",
            "0x000000000000000000000000068bb96e849f0de3d49944ec0f4aed3d6b165770"
          ],
          "data": "0x00000000000000000000000000000000000000000000000000000000000f4240",
          "blockHash": "0x0000000000000000000000000000000000000000000000000000000000000000",
          "blockNumber": "0x2a65ea1",
          "blockTimestamp": "0x6a601c22",
          "transactionHash": "0x1e0e7f7e07929d4ca424c8724586a656a328c0a746add249cd97d78e7feb9c39",
          "transactionIndex": "0x16",
          "logIndex": "0x70",
          "removed": false
        },
        {
          "address": "0x068bb96e849f0de3d49944ec0f4aed3d6b165770",
          "topics": [
            "0x38c48552690c96ec2872092ac1db6c19fb59f5a8c5b49bbf41ed4886d0ca6926",
            "0x0000000000000000000000000000000000000000000000000000000000000001",
            "0x000000000000000000000000f76e6b0920e9332ff4410f6dd53f01722abc71a3"
          ],
          "data": "0x00000000000000000000000000000000000000000000000000000000000f4240",
          "blockHash": "0x0000000000000000000000000000000000000000000000000000000000000000",
          "blockNumber": "0x2a65ea1",
          "blockTimestamp": "0x6a601c22",
          "transactionHash": "0x1e0e7f7e07929d4ca424c8724586a656a328c0a746add249cd97d78e7feb9c39",
          "transactionIndex": "0x16",
          "logIndex": "0x71",
          "removed": false
        }
      ],
      "logsBloom": "0x00000000040000000000000000000000000000000000000000000000008000000000000000000000000000000000080000000000000000000000000002040000000000000000000000000008000000000000000000040000000000000000000800000000000000000000000000000000000000000001000000000010000000000000000000000000000000100000000000000000000000000000000040000000000000000000004000000001000000000000000000000000000200000000000000000002000000000000000000000000000000000000000000000010000040000000000000000002000000000020000010000000000000000000000000000000",
      "transactionHash": "0x1e0e7f7e07929d4ca424c8724586a656a328c0a746add249cd97d78e7feb9c39",
      "transactionIndex": "0x16",
      "blockHash": "0x0000000000000000000000000000000000000000000000000000000000000000",
      "blockNumber": "0x2a65ea1",
      "gasUsed": "0x13dd1",
      "effectiveGasPrice": "0x5b8d80",
      "blobGasUsed": "0xae38",
      "from": "0xf76e6b0920e9332ff4410f6dd53f01722abc71a3",
      "to": "0x068bb96e849f0de3d49944ec0f4aed3d6b165770",
      "contractAddress": null,
      "l1GasPrice": "0x3af85f1e",
      "l1GasUsed": "0x640",
      "l1Fee": "0x15f53cad8",
      "l1BaseFeeScalar": "0x44d",
      "l1BlobBaseFee": "0x3c00146",
      "l1BlobBaseFeeScalar": "0xa118b",
      "daFootprintGasScalar": "0x1be"
    }
  ],
  "libraries": [],
  "pending": [],
  "returns": {},
  "timestamp": 1784683553234,
  "chain": 84532,
  "commit": null
}