{
  "transactions": [
    {
      "hash": "0xf16ba18598ae512ceef01ebaae26376599e1920adaff8dfeef54a3dd43beba00",
      "transactionType": "CALL",
      "contractName": null,
      "contractAddress": "0x833589fcd6edb6e08f4c7c32d4f71b54bda02913",
      "function": "approve(address,uint256)",
      "arguments": [
        "0x068bB96e849F0DE3D49944Ec0F4aEd3D6B165770",
        "1000000"
      ],
      "transaction": {
        "from": "0xf76e6b0920e9332ff4410f6dd53f01722abc71a3",
        "to": "0x833589fcd6edb6e08f4c7c32d4f71b54bda02913",
        "gas": "0x12b1b",
        "value": "0x0",
        "input": "0x095ea7b3000000000000000000000000068bb96e849f0de3d49944ec0f4aed3d6b16577000000000000000000000000000000000000000000000000000000000000f4240",
        "nonce": "0x3",
        "chainId": "0x2105"
      },
      "additionalContracts": [],
      "isFixedGasLimit": false
    },
    {
      "hash": "0xea48ae068b7d7a4489713691642a62465d57671225a6a91461d00a045cae1d4f",
      "transactionType": "CALL",
      "contractName": null,
      "contractAddress": "0x068bb96e849f0de3d49944ec0f4aed3d6b165770",
      "function": "fund(uint256,uint256)",
      "arguments": [
        "1",
        "1000000"
      ],
      "transaction": {
        "from": "0xf76e6b0920e9332ff4410f6dd53f01722abc71a3",
        "to": "0x068bb96e849f0de3d49944ec0f4aed3d6b165770",
        "gas": "0x1d0ce",
        "value": "0x0",
        "input": "0xa65e2cfd000000000000000000000000000000000000000000000000000000000000000100000000000000000000000000000000000000000000000000000000000f4240",
        "nonce": "0x4",
        "chainId": "0x2105"
      },
      "additionalContracts": [],
      "isFixedGasLimit": false
    }
  ],
  "receipts": [
    {
      "type": "0x2",
      "status": "0x1",
      "cumulativeGasUsed": "0xfb704e",
      "logs": [
        {
          "address": "0x833589fcd6edb6e08f4c7c32d4f71b54bda02913",
          "topics": [
            "0x8c5be1e5ebec7d5bd14f71427d1e84f3dd0314c0f7b2291e5b200ac8c7c3b925",
            "0x000000000000000000000000f76e6b0920e9332ff4410f6dd53f01722abc71a3",
            "0x000000000000000000000000068bb96e849f0de3d49944ec0f4aed3d6b165770"
          ],
          "data": "0x00000000000000000000000000000000000000000000000000000000000f4240",
          "blockHash": "0x9d09ef4cd578f66ba2b6b1a1c547fe82ee3a27da3694aba45c91f22e3b6b2b23",
          "blockNumber": "0x2eb8441",
          "blockTimestamp": "0x6a616565",
          "transactionHash": "0xf16ba18598ae512ceef01ebaae26376599e1920adaff8dfeef54a3dd43beba00",
          "transactionIndex": "0x52",
          "logIndex": "0x1b3",
          "removed": false
        }
      ],
      "logsBloom": "0x00000000000000000000000000000000000000000000000000000000000000000000000000000000000000000000100000000000000000000000000000200000000000000000000000000000000000000000000000080000000000000000000000800000000000000000000000000000000000000000000000000000000000000000000000000000000000000000000000000000000000000000000040000000020000000000004000000001000000000000000000000000000200000000000000000000000000000000000000000000000000000000000000000010000000000010000000000000000000000000000010000000000000000000000000000000",
      "transactionHash": "0xf16ba18598ae512ceef01ebaae26376599e1920adaff8dfeef54a3dd43beba00",
      "transactionIndex": "0x52",
      "blockHash": "0x9d09ef4cd578f66ba2b6b1a1c547fe82ee3a27da3694aba45c91f22e3b6b2b23",
      "blockNumber": "0x2eb8441",
      "gasUsed": "0xd88d",
      "effectiveGasPrice": "0x501bd0",
      "blobGasUsed": "0x39d0",
      "from": "0xf76e6b0920e9332ff4410f6dd53f01722abc71a3",
      "to": "0x833589fcd6edb6e08f4c7c32d4f71b54bda02913",
      "contractAddress": null,
      "l1GasPrice": "0x7a4eeb1",
      "l1GasUsed": "0x640",
      "l1Fee": "0x4da56821",
      "l1BaseFeeScalar": "0x8dd",
      "l1BlobBaseFee": "0x78fbbb",
      "l1BlobBaseFeeScalar": "0x101c12",
      "daFootprintGasScalar": "0x94"
    },
    {
      "type": "0x2",
      "status": "0x1",
      "cumulativeGasUsed": "0x11f8d51",
      "logs": [
        {
          "address": "0x833589fcd6edb6e08f4c7c32d4f71b54bda02913",
          "topics": [
            "0xddf252ad1be2c89b69c2b068fc378daa952ba7f163c4a11628f55a4df523b3ef",
            "0x000000000000000000000000f76e6b0920e9332ff4410f6dd53f01722abc71a3",
            "0x000000000000000000000000068bb96e849f0de3d49944ec0f4aed3d6b165770"
          ],
          "data": "0x00000000000000000000000000000000000000000000000000000000000f4240",
          "blockHash": "0x27c580103e93a9caac1f5466d89289a947129df92206895c0b0316a553629166",
          "blockNumber": "0x2eb8442",
          "blockTimestamp": "0x6a616567",
          "transactionHash": "0xea48ae068b7d7a4489713691642a62465d57671225a6a91461d00a045cae1d4f",
          "transactionIndex": "0x6a",
          "logIndex": "0x172",
          "removed": false
        },
        {
          "address": "0x068bb96e849f0de3d49944ec0f4aed3d6b165770",
          "topics": [
            "0x38c48552690c96ec2872092ac1db6c19fb59f5a8c5b49bbf41ed4886d0ca6926",
            "0x0000000000000000000000000000000000000000000000000000000000000001",
            "0x000000000000000000000000f76e6b0920e9332ff4410f6dd53f01722abc71a3"
          ],
          "data": "0x00000000000000000000000000000000000000000000000000000000000f4240",
          "blockHash": "0x27c580103e93a9caac1f5466d89289a947129df92206895c0b0316a553629166",
          "blockNumber": "0x2eb8442",
          "blockTimestamp": "0x6a616567",
          "transactionHash": "0xea48ae068b7d7a4489713691642a62465d57671225a6a91461d00a045cae1d4f",
          "transactionIndex": "0x6a",
          "logIndex": "0x173",
          "removed": false
        }
      ],
      "logsBloom": "0x000000000000000000000000000000000000000000000000000000000080000000000000000000000000000000001800000000000000000000000000020400000000000000000000000000080000000000000000000c0000000000000000000000800000000000000000000000000000000000000001000000000010000000000000000000000000000000100000000000000000000000000000000040000000000000000000004000000001000000000000000000000000000200000000000000000002000000000000000000000000000000000000000000000010000040000000000000000002000000000000000010000000000000000000000000000000",
      "transactionHash": "0xea48ae068b7d7a4489713691642a62465d57671225a6a91461d00a045cae1d4f",
      "transactionIndex": "0x6a",
      "blockHash": "0x27c580103e93a9caac1f5466d89289a947129df92206895c0b0316a553629166",
      "blockNumber": "0x2eb8442",
      "gasUsed": "0x13dd1",
      "effectiveGasPrice": "0x501bd0",
      "blobGasUsed": "0x39d0",
      "from": "0xf76e6b0920e9332ff4410f6dd53f01722abc71a3",
      "to": "0x068bb96e849f0de3d49944ec0f4aed3d6b165770",
      "contractAddress": null,
      "l1GasPrice": "0x7a4eeb1",
      "l1GasUsed": "0x640",
      "l1Fee": "0x4da56821",
      "l1BaseFeeScalar": "0x8dd",
      "l1BlobBaseFee": "0x78fbbb",
      "l1BlobBaseFeeScalar": "0x101c12",
      "daFootprintGasScalar": "0x94"
    }
  ],
  "libraries": [],
  "pending": [],
  "returns": {},
  "timestamp": 1784767846457,
  "chain": 8453,
  "commit": "4396966"
}