{
  "transactions": [
    {
      "hash": "0xe1c1d62d9e328bb2425db100620e0ee1857622a5e749ab2caef8b8e322b86f70",
      "transactionType": "CALL",
      "contractName": null,
      "contractAddress": "0x068bb96e849f0de3d49944ec0f4aed3d6b165770",
      "function": "registerMission(bytes32,uint64,uint64,uint128,address,address,uint128)",
      "arguments": [
        "0x0ccdc52804ea95ce83e7990b8b8e6a66c42b717c30a88a05248cf95310dd30e2",
        "1784768419",
        "300",
        "5000000",
        "0x230640f6508C7a1086444c5Ba62D230F395Ba0e1",
        "0xa45d8a46a4BC22Aae9946AE85962fA130A0aEFa6",
        "500000"
      ],
      "transaction": {
        "from": "0xf76e6b0920e9332ff4410f6dd53f01722abc71a3",
        "to": "0x068bb96e849f0de3d49944ec0f4aed3d6b165770",
        "gas": "0x36d38",
        "value": "0x0",
        "input": "0xd075c8950ccdc52804ea95ce83e7990b8b8e6a66c42b717c30a88a05248cf95310dd30e2000000000000000000000000000000000000000000000000000000006a6167a3000000000000000000000000000000000000000000000000000000000000012c00000000000000000000000000000000000000000000000000000000004c4b40000000000000000000000000230640f6508c7a1086444c5ba62d230f395ba0e1000000000000000000000000a45d8a46a4bc22aae9946ae85962fa130a0aefa6000000000000000000000000000000000000000000000000000000000007a120",
        "nonce": "0x2",
        "chainId": "0x2105"
      },
      "additionalContracts": [],
      "isFixedGasLimit": false
    }
  ],
  "receipts": [
    {
      "type": "0x2",
      "status": "0x1",
      "cumulativeGasUsed": "0x1c7e2fb",
      "logs": [
        {
          "address": "0x068bb96e849f0de3d49944ec0f4aed3d6b165770",
          "topics": [
            "0x177ba305d193020f780c209c296d8e7b42e203736c678e12d70a4de96f94593a",
            "0x0000000000000000000000000000000000000000000000000000000000000001",
            "0x0ccdc52804ea95ce83e7990b8b8e6a66c42b717c30a88a05248cf95310dd30e2",
            "0x000000000000000000000000230640f6508c7a1086444c5ba62d230f395ba0e1"
          ],
          "data": "0x000000000000000000000000a45d8a46a4bc22aae9946ae85962fa130a0aefa6000000000000000000000000000000000000000000000000000000006a6167a3000000000000000000000000000000000000000000000000000000000000012c00000000000000000000000000000000000000000000000000000000004c4b40000000000000000000000000000000000000000000000000000000000007a120",
          "blockHash": "0x0000000000000000000000000000000000000000000000000000000000000000",
          "blockNumber": "0x2eb843a",
          "blockTimestamp": "0x6a616557",
          "transactionHash": "0xe1c1d62d9e328bb2425db100620e0ee1857622a5e749ab2caef8b8e322b86f70",
          "transactionIndex": "0xb5",
          "logIndex": "0x299",
          "removed": false
        }
      ],
      "logsBloom": "0x00000000000000000000000000000000000000000000000000000000008000000000000000000000000000000000000000000020000000000000000002040000000000000000000000000000000800000000000000040000000000000000000000000000000000000000000000000000000000000000000000000000000000000000100000000000000000000000000000000000000000000000000000000000000000000000000000000000000000000000000004080000000000000000000000000000000000000000081004000000000000000000000000000000000040000000000000000003000000000000000000000000000000000000000000000000",
      "transactionHash": "0xe1c1d62d9e328bb2425db100620e0ee1857622a5e749ab2caef8b8e322b86f70",
      "transactionIndex": "0xb5",
      "blockHash": "0x0000000000000000000000000000000000000000000000000000000000000000",
      "blockNumber": "0x2eb843a",
      "gasUsed": "0x27b18",
      "effectiveGasPrice": "0x501bd0",
      "blobGasUsed": "0x599c",
      "from": "0xf76e6b0920e9332ff4410f6dd53f01722abc71a3",
      "to": "0x068bb96e849f0de3d49944ec0f4aed3d6b165770",
      "contractAddress": null,
      "l1GasPrice": "0x7ee51fd",
      "l1GasUsed": "0x9ba",
      "l1Fee": "0x4e8029ff",
      "l1BaseFeeScalar": "0x8dd",
      "l1BlobBaseFee": "0x788824",
      "l1BlobBaseFeeScalar": "0x101c12",
      "daFootprintGasScalar": "0x94"
    }
  ],
  "libraries": [],
  "pending": [],
  "returns": {},
  "timestamp": 1784767830605,
  "chain": 8453,
  "commit": "4396966"
}