{
  "transactions": [
    {
      "hash": "0x56fc668746b90a798731116aec697059a47ec57de8a8d3eb525cd02c1f2bdb49",
      "transactionType": "CALL",
      "contractName": null,
      "contractAddress": "0x068bb96e849f0de3d49944ec0f4aed3d6b165770",
      "function": "registerMission(bytes32,uint64,uint64,uint128,address,address,uint128)",
      "arguments": [
        "0x654ef3c07cd9899a296b0e7e5014d293491feeee39a28bce613d4ed9ca3f6b4d",
        "1784683614",
        "300",
        "5000000",
        "0x230640f6508C7a1086444c5Ba62D230F395Ba0e1",
        "0xa45d8a46a4BC22Aae9946AE85962fA130A0aEFa6",
        "500000"
      ],
      "transaction": {
        "from": "0xf76e6b0920e9332ff4410f6dd53f01722abc71a3",
        "to": "0x068bb96e849f0de3d49944ec0f4aed3d6b165770",
        "gas": "0x36d38",
        "value": "0x0",
        "input": "0xd075c895654ef3c07cd9899a296b0e7e5014d293491feeee39a28bce613d4ed9ca3f6b4d000000000000000000000000000000000000000000000000000000006a601c5e000000000000000000000000000000000000000000000000000000000000012c00000000000000000000000000000000000000000000000000000000004c4b40000000000000000000000000230640f6508c7a1086444c5ba62d230f395ba0e1000000000000000000000000a45d8a46a4bc22aae9946ae85962fa130a0aefa6000000000000000000000000000000000000000000000000000000000007a120",
        "nonce": "0x2",
        "chainId": "0x14a34"
      },
      "additionalContracts": [],
      "isFixedGasLimit": false
    }
  ],
  "receipts": [
    {
      "type": "0x2",
      "status": "0x1",
      "cumulativeGasUsed": "0x495a8f",
      "logs": [
        {
          "address": "0x068bb96e849f0de3d49944ec0f4aed3d6b165770",
          "topics": [
            "0x177ba305d193020f780c209c296d8e7b42e203736c678e12d70a4de96f94593a",
            "0x0000000000000000000000000000000000000000000000000000000000000001",
            "0x654ef3c07cd9899a296b0e7e5014d293491feeee39a28bce613d4ed9ca3f6b4d",
            "0x000000000000000000000000230640f6508c7a1086444c5ba62d230f395ba0e1"
          ],
          "data": "0x000000000000000000000000a45d8a46a4bc22aae9946ae85962fa130a0aefa6000000000000000000000000000000000000000000000000000000006a601c5e000000000000000000000000000000000000000000000000000000000000012c00000000000000000000000000000000000000000000000000000000004c4b40000000000000000000000000000000000000000000000000000000000007a120",
          "blockHash": "0x0000000000000000000000000000000000000000000000000000000000000000",
          "blockNumber": "0x2a65e8d",
          "blockTimestamp": "0x6a601bfa",
          "transactionHash": "0x56fc668746b90a798731116aec697059a47ec57de8a8d3eb525cd02c1f2bdb49",
          "transactionIndex": "0x14",
          "logIndex": "0x70",
          "removed": false
        }
      ],
      "logsBloom": "0x00000000000000000000000000000008000000000000010200000000008000000000000000000000000000000000000000000000000000000000000002040000000000000000000000000000000800000000000000040000000000000000000000000000000000000000000000000000000000000000000000000000000000000000000000000000000000000000000000000000000000000000000000000000000000000000000000000000000000000000000004080000000000000000000000000000000000000000081000000000000000000000000000000000000040000000000000000003000000000000000000000000000000000000000000000000",
      "transactionHash": "0x56fc668746b90a798731116aec697059a47ec57de8a8d3eb525cd02c1f2bdb49",
      "transactionIndex": "0x14",
      "blockHash": "0x0000000000000000000000000000000000000000000000000000000000000000",
      "blockNumber": "0x2a65e8d",
      "gasUsed": "0x27b18",
      "effectiveGasPrice": "0x5b8d80",
      "blobGasUsed": "0x10fc8",
      "from": "0xf76e6b0920e9332ff4410f6dd53f01722abc71a3",
      "to": "0x068bb96e849f0de3d49944ec0f4aed3d6b165770",
      "contractAddress": null,
      "l1GasPrice": "0x3f99f031",
      "l1GasUsed": "0x9c8",
      "l1Fee": "0x1758c34e3",
      "l1BaseFeeScalar": "0x44d",
      "l1BlobBaseFee": "0x395e1c5",
      "l1BlobBaseFeeScalar": "0xa118b",
      "daFootprintGasScalar": "0x1be"
    }
  ],
  "libraries": [],
  "pending": [],
  "returns": {},
  "timestamp": 1784683513181,
  "chain": 84532,
  "commit": null
}